:100000000C942A000C943F000C943F000C943F0089
:100010000C943F000C943F000C943F000C943F0064
:100020000C943F000C943F000C943F000C943F0054
:100030000C943F000C943F000C943F000C943F0044
:100040000C943F000C943F000C943F000C943F0034
:100050000C943F0011241FBECFE5D8E0DEBFCDBF1A
:1000600010E0A0E6B0E0EAEBF1E002C005900D92EE
:10007000AA36B107D9F70E9441000C94DB000C941A
:100080000000DF93CF93CDB7DEB762970FB6F89439
:10009000DEBF0FBECDBFEAE3F0E08FEF8083CE017D
:1000A00004969F878E87E0E6F0E0F98BE88BFAE014
:1000B000FA8BE889F9890080888999890196998B5A
:1000C000888BEE85FF8500828E859F8501969F87B0
:1000D0008E879A8991509A8BEA89EE2351F71B8279
:1000E0001A821982E7E3F0E08CEF8083E8E3F0E026
:1000F00083E08083ABE3B0E08981282F30E0CE013C
:100100000496FC01E20FF31F80818C93E6E3F0E09C
:100110008081882F90E0817090700097F1F4898140
:100120008F5F8983ABE3B0E08981282F30E0CE0177
:100130000496FC01E20FF31F80818C93E6E3F0E06C
:100140008081882F90E0817090700097B9F3898149
:100150008A3050F189E0898327C0E6E3F0E08081AE
:100160008695882F90E0817090700097E9F48981DE
:1001700081508983ABE3B0E08981282F30E0CE0144
:100180000496FC01E20FF31F80818C93E6E3F0E01C
:1001900080818695882F90E0817090700097B1F3F0
:1001A00089818A3008F0198289818A3008F4A2CFC7
:0A01B00089E089839FCFF894FFCF08
:0A01BA003F065B4F666D7D077F6F07
:00000001FF
