:100000000C942A000C9434000C9434000C943400AA
:100010000C9434000C9434000C9434000C94340090
:100020000C9434000C9434000C9434000C94340080
:100030000C9434000C9434000C9434000C94340070
:100040000C9434000C9434000C9434000C94340060
:100050000C94340011241FBECFE5D8E0DEBFCDBF25
:100060000E9436000C94DA000C940000DF93CF93CA
:10007000CDB7DEB7E7E3F0E087E08083E8E3F0E0C8
:1000800087E08083EAE3F0E083E08083ABE3B0E0E5
:10009000EBE3F0E080818E7F8C93ABE3B0E0EBE3A9
:1000A000F0E080818D7F8C93E6E3F0E08081882F03
:1000B00090E081709070009779F4ABE3B0E0EBE3EF
:1000C000F0E0808181608C93ABE3B0E0EBE3F0E0A3
:1000D00080818D7F8C9310C0E9E3F0E08081882FD0
:1000E00090E081709070882339F0ABE3B0E0EBE3EF
:1000F000F0E080818E7F8C93E6E3F0E0808186954E
:10010000882F90E081709070009779F4ABE3B0E0B5
:10011000EBE3F0E0808182608C93ABE3B0E0EBE353
:10012000F0E080818E7F8C9311C0E9E3F0E0808164
:100130008695882F90E081709070882339F0ABE32A
:10014000B0E0EBE3F0E080818D7F8C93E6E3F0E0BC
:10015000808186958695882F90E0817090700097B9
:1001600079F4ABE3B0E0EBE3F0E0808182608C9364
:10017000ABE3B0E0EBE3F0E0808181608C9394CF5F
:10018000E9E3F0E080818695882F90E0817090709F
:10019000882309F489CFABE3B0E0EBE3F0E08081A2
:1001A0008D7F8C93ABE3B0E0EBE3F0E080818E7F5A
:0801B0008C937ACFF894FFCF85
:00000001FF
